:100000000C944B0E0C946A0E0C946A0E0C946A0EAF
:100010000C946A0E0C946A0E0C9412BE0C946A0E28
:100020000C946A0E0C946A0E0C946A0E0C946A0E70
:100030000C946A0E0C946A0E0C946A0E0C946A0E60
:100040000C94CAB90C946A0E0C946A0E0C942FBED0
:100050000C941BBB0C946A0E0C94C2BA0C946A0EDE
:100060000C94B9BD0C946A0E0C9460BE0C946A0E8C
:100070000C9440BA0C946A0E0C9491BA0C946A0ECB
:100080000C946A0E0C946A0E0C946A0E192D062DAF
:10009000F72C3C2D322DE32CCB2C232D9E2D9D2D8A
:1000A0009D2D9D2D9D2D9D2D9D2DA82D9D2D9D2DF5
:1000B000B22DBA2DC22DCC2DD62DDE2DE82DF12D51
:1000C0009D2D9D2DFA2D9D2D022E9D2D9D2D9D2D1D
:1000D0009D2D9D2D0C2E9D2D142E1C2E242E9D2DE0
:1000E0009D2D9D2D962D632E3A2E3A2E3A2E3A2E88
:1000F0003A2E3A2E482E3A2E712E542E572E482E36
:10010000482E8A2E982E4D2EAF2EAA2EA52E9F2E2B
:100110003A2E412E3A2E3A2E3A2E3A2E3A2E6A2E68
:100120003A2E412E912E4D2E3A2E3A2E3A2E412E17
:10013000962FC22EC22EC22EC22EC22EC22E8F2F9C
:10014000C22EDC2ED52EC92E472F3B2F342FD52E75
:100150002C2F252F1E2F172F0B2FC22ECE2EC22E47
:10016000C22EC22EC22EC22EFD2EC22ECE2EF62E94
:10017000042FC22EC22EC22ECE2E9230BA2FBA2FEC
:10018000BA2FBA2FBA2FBA2F8B30BA2FCF2FC82F32
:1001900083303B302F302830C82F203019300630C4
:1001A000FF2F0D30BA2FC12FBA2FBA2FBA2FBA2F67
:1001B000BA2FF02FBA2FC12FE92FF82FBA2FBA2F4D
:1001C000BA2FC12FE030B930B930B930B930B930B9
:1001D000B9306331B9304A31C730CE300231CE3018
:1001E000D930C730783171316A31F330E730B93006
:1001F000C030B930B930B930B930B930FA30B9306F
:10020000C030D9307F31B930B930B930C030033265
:10021000A631A631A631A631A631A6310A32A631C1
:10022000A631B831E9310D32B431C431B831CB31F6
:10023000F531FC31D331BF31A631AD31A631A63114
:10024000A631A631A631DA31A631AD31E231D03155
:10025000A631A631A631AD312D33C932C932223390
:10026000C932C932C932C932C932C932C932C932B6
:100270000433D032D0327D32B933E632A433F03297
:10028000F833E6335F33D733C932D032C932C9329B
:10029000C932C932C9327C33C932993371338E3392
:1002A000C932C932C932CC33C3355C355C358F3580
:1002B0005C355C355C355C355C355C355C355C35B6
:1002C000A5353B367035143670359B35753661363D
:1002D0005736463694368D355C3563355C355C353E
:1002E0005C355C355C3529365C35633509361F363F
:1002F0005C355C355C358936883D923D9C3DA63D3C
:10030000B03DBA3DC43D743D7E3D744780478E4745
:100310009C47A94768475D47D4487F487F487F4846
:100320007F487F487F487F487F487F480349364958
:100330006B499C49C549044AF44A9D4B3A4C804C50
:100340007F487F489F4C7F487F487F487F487F4851
:10035000B24C7F48514D554D8A4D7F487F487F486C
:100360008E48E951D452CF53D95458556E50395113
:100370005B5F7A5E825E6C5D7A5D495E725E395D5E
:10038000675DFA60F060E660DC60D260C860BE6005
:10039000B4600461CF69AA69876962693D691969B6
:1003A000F568D068AB687668177D177D117D117D83
:1003B000117D117D117D117D117D117D317D117DAD
:1003C000117D117D117D117D117D117D117D117DBD
:1003D000117D117D117D117D117D117D117D117DAD
:1003E000117D117D387D117D117D517D587D5C7DA4
:1003F000637D117D117D117D117D117D117D117D3B
:10040000117D117D667D6A7D6E7D727D767D7A7D42
:10041000807DA47D8C7D987D217D117D117D2D7D3C
:100420002D7D2D7D2D7D2D7D2D7D2D7D2D7D2D7D7C
:100430002D7D197E067E4A7EB87E337F527FD47F23
:10044000D17D937F1E7E067E067E067E067E067E1C
:10045000197E1B831B83E082E082CD82CD82D9820C
:10046000CD822D84C6847984E4831D84E4834E8404
:100470009A843789AE8B808BFE8A5D89318D8E8E12
:10048000598E3F8DA18CDC8BF288D888D888D8888B
:10049000D888D888D888D888D888D888D888D8885C
:1004A000D888D888D888D888D888D888D888D8884C
:1004B000D888D888D888D888D888D888D888D8883C
:1004C000D888D888D888D888D888D888D888D8882C
:1004D000D888D888D888D888D888D888D888D8881C
:1004E000D888D888D888D888D888D888D888D8880C
:1004F000D888D888D888D888D888D888D888D888FC
:10050000D888D888D888D888D888D888D888D888EB
:10051000D888D888D888D888D888D888D888D888DB
:10052000D888D888D888D888D888D888D888D888CB
:10053000D888D888D888D888D888A1885493D7995B
:10054000CD99AE99C999AE99C999D499B299A79DF7
:100550000F9D0F9D0F9D0F9D0F9D0F9D169D0F9D34
:100560000F9DA29D9D9D989D939D8E9D899D809D93
:10057000779D329D329D699D0F9D649D0F9D0F9DBE
:100580000F9D0F9D0F9D5F9D0F9D5A9D559D4C9DED
:100590000F9D0F9D0F9D729D019EE69DF39DE69D13
:1005A000E69DE69DF79D609E599E529E4C9E249E20
:1005B000E69D4C9EE69D0D9EE69DFC9DE69DE69D7E
:1005C0004C9EEC9D4C9E4C9E4C9E4C9E4C9E4C9E3C
:1005D0004C9E4C9E4C9E4C9E4C9E4C9EE69D4C9E32
:1005E000AB9EE69DE69DE69DE69D4C9EA49E4C9EA0
:1005F0004C9E4C9EE69DE69DE69D4C9EE69DE69DAE
:10060000E69DE69DE69DE69DE69DE69DE69DE69DD2
:10061000E69DA19EF39DE69DE69DE69DE69DE69DF9
:10062000E69DE69DE69DE69DE69DE69DE69D779E20
:100630006B9E659E879EAEA241A4F5A45BA57AA59C
:10064000E3A568A7BBA702A679A68CA603A790A2DC
:1006500095A240AA57AA84AAABAAD3AA07AB22ABF9
:100660002BAB59ABE5AB35AC54AC35AC54AC35AC7D
:1006700054AC35AC70ACE7A928AA73AE76AE9EAE8A
:10068000C6AEE0AE0CAF3DAF73AFAEAF28AE52AE6C
:1006900081B08CB094B0AFB0CEB0EDB053B065B017
:1006A00004B8E5B7C6B7A7B76BB7D6B63EB8B7BC00
:1006B0008ABB8ABBDCBC8ABB8ABBDCBC8ABB8ABB6C
:1006C0008ABBDCBC8ABBDCBCDCBC8ABB8ABB87BC0B
:1006D000DCBC8ABB8ABB8ABB59BC8ABB8ABB8ABBCF
:1006E0008ABB8ABB8ABB8ABB8ABB38BC8ABBE1BCDB
:1006F00014BC8ABBF7BB8ABB8ABBD4BB8ABB8ABB90
:100700008ABB8ABB8ABB8ABBADBB03BF0CBF2CBFF5
:1007100049BF6CBFA2BED2BE6E616E00696E66003C
:1007200000407A10F35A00A0724E18090010A5D4A8
:10073000E80000E87648170000E40B54020000CA05
:100740009A3B000000E1F50500008096980000004B
:1007500040420F000000A0860100000010270000AA
:100760000000E803000000006400000000000A0030
:10077000000000000100000000002C76D888DC6733
:100780004F0823DFC1DFAE59E1B1B796E5E3E4538B
:10079000C63AE651997696E8E6C28426EB898C9BA8
:1007A00062ED407C6FFCEFBC9C9F40F2BAA56FA548
:1007B000F490055A2AF75C936B6CF9676DC11BFCCA
:1007C000E0E40D47FEF520E6B500D0ED902E0300E5
:1007D000943577050080841E080000204E0A000032
:1007E00000C80C333333330F986E12831141EF8DF1
:1007F0002114893BE65516CFFEE6DB18D1844B3831
:100800001BF77C1D901DA4BBE424203284725E2261
:100810008100C9F124ECA1E53D274E414E494E49E6
:100820005459494E46CDCCCC3D0AD7233C17B7D1BD
:100830003877CC2B329595E6241FB14F0A00002063
:10084000410000C84200401C4620BCBE4CCA1B0EE2
:100850005AAEC59D74789CED9C2D77DB4A13807B46
:10086000FA2BF2070A0C0D0D4A0B030A020C420A7E
:10087000020A020C0C04724EB1614081697E408014
:10088000A168E005018122010601060102067A3510
:100890001A8DF76B76775659D97D4F3C3AE7D6D704
:1008A00092779E9D9DFD98D955A64FEBF7F8B579A7
:1008B000F9922C9BABF5227E4D7F54FB4624E90434
:1008C000CD9DE4AA0A20A8ABF0359CA0BE0E5F44E3
:1008D000102D8B956ABF7EBF78BD7FBEF8B55E5484
:1008E000055FC338A59C803C826BB56A5FEC7625BA
:1008F00059955A382781FDCCE60AEBBC2BEB4A31DF
:10090000557BD35FA1F43108169754D78B5FEA89E2
:100910008B57E258FC372E01DA76BD584DDDA756CD
:100920008FEB776CAFB10826DF7ADB7FF73FD97AA0
:1009300043D71E93873108407FB98C3DFBE54B5967
:1009400003437E02E8BB12FDC4D08E229909C0FE8B
:10095000936F3282C943E7940904B1910B09A4163D
:1009600000412B48AEC903D52F387677CFAC17722C
:1009700002EC1512C1F1446683FA5A4E007349B174
:100980008B5B800862E5E9769ABF496B377F13F885
:10099000C10002E96CDE34ED389995806626283B6B
:1009A00050623762AE1760DFBACA4760D72E4CD0AC
:1009B000AD0B2A1C117211E89E187E9EC680541B36
:1009C000886400816095D612DC3F4B56AA17AF436E
:1009D00008E2EBD4CEBF16F1D66A4BBC1E42102FF4
:1009E000F7DF20583D4A466F5805A613C4C6DAB64D
:1009F0005E2D01CC21A7F54469BC308C406283FF99
:100A00008F11E9F4043826622CA2CF11FE0BDB769D
:100A10009CB951ECB9EDFA20374171DBFB8FA0F79F
:100A200016BBC47941B44A2B6E63E52901029920B3
:100A3000416CF41EB6522D6BC98C337D4AF10339DB
:100A4000018E2079E305983FF4583524ED4CDA5AAD
:100A50003737C1E45BD7CF05EB651C43DBA8257BAB
:100A6000DC78FF13186637E167675BD07FFF3C4E89
:100A7000F43EFD817DC3173D63E4DC34D3272A3D7A
:100A8000370144F09841A88ACD95F9CCE605D77B8B
:100A9000EB7788DCC72300595C52DEAA5CCE6E7609
:100AA000E56C4BE364B5571994FC04D47FCBBAD8FA
:100AB000153BFC648EC1ABC7E2B6B82D972A93955F
:100AC0008F203CA6CDB6AB47DF689AD3066ACC9F91
:100AD0006DEB8ACBF26EAEEAEBD98D99AD941248EC
:100AE00024561657BAE4AA8A8B57C9E83D7F4B278C
:100AF00098FF9664B6A5E3EC59A4D2F609A37F9EAD
:100B0000563F64304EA11F3CF6FE99E6A6CFA87F63
:100B10003525FDD0D353D69563E897AFA8F2EBC740
:100B200095CCFDCFF175E36AE874FAFB157403AB5D
:100B3000F2D3E82702A83FAE4D8FAB7F57E2FA44CD
:100B4000D91FADB17EAFABD5E3B1B4C3AAACADF1A3
:100B5000F3E1F341AAFD78E3A1D20EF557FA9B0623
:100B6000EDBF79996D89253F85AE1D33E787FEDF9F
:100B700011A8F69F3C50E4BA2B25E5863311147F6B
:100B8000AAF906FFA5956AE77FBD0D60955A5FE358
:100B90004EE0E401EF63EC1012F96E086608372F9F
:100BA000FA37BDFF43DB17C6CAAB1B0F9136C60031
:100BB00004BE7BD327DABFA40CE5EE7BB9D4B30A1D
:100BC000D8FF400FFE627335BB2116A00006D8F98E
:100BD000CB45A0B43777F3DF14D3632BE8BF9B7CFE
:100BE0002B6E29BE83A7C2FD1308BCE7239E30EFFE
:100BF0004B3B1658332C9BF21AE07F360152206F84
:100C0000AC9521FA69BC591C24680ED93988DD37A6
:100C100057662B80368E00046863F91C38C590E255
:100C200007BAA858C747000CB033E6CF718F4FD032
:100C3000460DFF08813766FA4404BEBB678233C1A4
:100C4000E72138F5A81C5F7FCCDFC625C0888A72F3
:100C50009CAE747B47EFFEDD3E888AAABDDA33493D
:100C600025C02CEF6CEBCF871381544C8618019E66
:100C700017811575389796BA52551421827E97B40C
:100C8000D9BC601EDA7F41C6CD9FF9845C3A9E01D3
:100C900082FC249D7C230A9E605792F7438E7B350D
:100CA000052DE1935440E0DB939DDD8095E013AC8E
:100CB000FBA035750A9B60FAA47A1EECA8C3BA168D
:100CC000F4C776246256D22FF42845A11390A88841
:100CD0006DFE1BAD1CD60F9CC15DB68272E53C85D6
:100CE0004E50D6CA47A0D5E0B277213E26AB297137
:100CF000D8BBF0861F7CA795FA7A213D493794C26C
:100D0000CC8983DF926EDF29CEDC146D4F3BF4DAA1
:100D100076ECB222B6B18528F0FF5077B94C393B5A
:100D20007796988075AB42DFA33167F9B1334530D0
:100D3000060085BED74E798B633040F48F3900F3BF
:100D40007B95B1C6396F2C06D08C3B85EE7C750C3B
:100D500006D08B19909739777F6C063D13E47B663C
:100D60004C069C49E3B3D9780C6A548D9D4BB61957
:100D70004066DB8FEA270B60EE27F6B46250F9DDA0
:100D80008F12E85932C989176480F500DAE1E3046B
:100D9000AA05C2FBD5709A51DFF7576D51D6920C58
:100DA0006E8C8038F867D49B22586BC5A0F63A86C3
:100DB00052A895858F8146E56A3FDBD2CEBF6B870F
:100DC000E114EEDB48FA5D3ADF52ECCCE80BB5BB40
:100DD0000C4328B84886EE41EC0865BAB11FAECD89
:100DE0009001E21AD4AEE6303A3502D1B1FF025694
:100DF000CAD3725640FDFC5E0512100309B41145BA
:100E00004C1281C8988F0DD00AE063BEBD1222C07B
:100E10003C84794FC5DA601B7F7EBF3B9BE779231B
:100E20000D1820F6F6F7F45C04B11C07BD1F35A2BF
:100E30000DF66102FF39869C04341BD1B9B343849B
:100E400056E18EFEF804EA1BD32B9000D6ACDCF9F9
:100E5000CC7108CC481A097C33D63804A6156C022C
:100E60007305CF13944B788ADEE168A3EEAC04C41B
:100E7000512EBBF5BC41E0B61FE6F4D30974069EC3
:100E8000E07081E0CAB6DB81760986B542F77D0263
:100E9000017ECA4D402BA6D31190153E13417854C4
:100EA0001E4E007D17097C6B3F2088BDAB877BAE53
:100EB000C308E01311C0E59E5031673E73C50E179D
:100EC000BE2DEA3D859A4CE05A4227E0D70978E6E4
:100ED00088DE284F23C0372CA195E164ABFF0D4B72
:100EE000B7F630AA52F4B85E0432E45E82D4555AA2
:100EF0002C6AA65317CECE294BA0B4CB57AAF68C9A
:100F0000E8CEC493075A09EBEFF823019CC02302F3
:100F1000D20E796D2A4BD54EF9001F239A7E5015BB
:100F200070FA5A67D1F3D9C50E7A387C227F829D38
:100F300018A5DDAE0169D4BFC3F8D08DD36D7FB4E1
:100F40007DD78CDCECDC3AA7BD7F822DCD2F7AAB30
:100F500070BFAA2B8A5D15815FBBCE90F6360C90D0
:100F6000849E375B215E9AFACB09290C21D15B4321
:100F7000963F50B6CD4331DBAA3E25FF7B29E86979
:100F80005CB6F0DF12FC7B0BF9DA2B55FABC7293DE
:100F9000E6B539F5B733C90DF4FAD310F46F6F75B0
:100FA000A3EC49F41794A17A99E7ECB729FA7BB935
:100FB000038263B7C2EE3BA987BDD253F4D77EBE8E
:100FC0006F28AB796C02B2403B8FF6AD705CFDDDF3
:100FD0000CDE7B00FEF7D8FA6996E95AA039CD58A5
:100FE00068CC732720286E9BE6B40CDA4860ACBE50
:100FF0008E27B6FE635BE1E2974B705C2B70FA8F35
:101000006905D7078ECDE0D39F63F7EAA304648513
:10101000BF5FE9D23FA75E6649FAF76D6C56E36C95
:10102000D4DC4D7FB876A88AE15A651744878A8058
:10103000F30AA02897540F12BD6EB6B8F76C6BA8D0
:10104000EFEC1D169817BC72C795E8D7CF11B07E8C
:10105000601184325B608D58895D5E798F7B0614E8
:101060001B87783B3FE85A01EEC3FE82BF772AFF19
:1010700084DF9825F66F6E1CAC05DAB124A0E17D03
:10108000896F23F54B89C08A9AB759B9A477D3B130
:10109000C4500FD12DFAF76BBF42CB22210FE17B59
:1010A000297EC6BF8E978340F901277ABDC722509B
:1010B00099396E7C7709D41DC3A73E247C3FB05B71
:1010C000C1F5CCD94D70544810A8FBDFAFF8372FCD
:1010D000FDFD41FF9CAFF64AF477E1EE7FC6468600
:1010E000DCDA5D09CDF8B9FAA057F79EFEE5E251CA
:1010F000B3F6B86F86276DC3A3B45CF06FBEB6A31A
:101100002F711481FA1F32DB3D81C0370423F91E91
:10111000C63ADC8B54BFEAEAD7CD77A6EFBBFB0C0F
:10112000D4AFB12C2A1379E10C8B3D922BEF83BC09
:10113000B6C6D9D7CEB4794F608DC59457B608EEF0
:10114000E8E49CFA174FD198D960F53BCC6C6B5111
:1011500069BF5F4A2700E9CC3A7C7328DFB2AFFF52
:101160008484FCEA881A7D67967204346AEB19F865
:101170007E9D72A75A30AE414869B571E707C5C177
:101180000F0C62FA7FC82B93D7FA5BC1AC03D70A66
:10119000782D2EC9AEF2FD8570665B2EA87171A9FF
:1011A0003CDE6E05A35F5AF6CD41406B41E5F1B1DF
:1011B0006C616C7F613883E6F1A23C4DAE5640C94C
:1011C000BFBF902EA1FD8576BEFCD35DFCFA1FEF5C
:1011D000FD693FFF197A99251D2EB56E71BE71F517
:1011E00077F3FA5082C06F1D363B36F3DDF1DA8CAF
:1011F000BBA76C6CACD6FE68EB75568FC99DDC6ADC
:101200007A49015EEDBEC560DB8DD3C296E6DC0B8C
:10121000F19A84FA739ADDFC6DC01370C4AE5778EE
:10122000DA887EEB7EC7FF22541FCE2E616BF3F56A
:10123000E6EC2D6983605C6F31B0B667EFA6107085
:10124000F7784B795ADFF106FED7A1925309B43AE9
:101250009871B5B70DBC7636EE79A3B6DECB0EE548
:101260007998B9BB037BA2EDD987D1296CB58017DA
:10127000F87258CC3D674CF6446D6739CBE925943C
:1012800059E0322EE99759927794600886EB1CCE8C
:10129000E6D7CFDD0959942FC7FC2EACC7A51DC7D3
:1012A000029CA6E3D85F69937CE7B34ED873E3DE74
:1012B000C4DF95EBFF28419AB5C7B080DFDE79091E
:1012C000C2AD20D57F0C82B8B552F4BB6DECF3AE45
:1012D000508BC45A556281B865FD043E6D39DB8080
:1012E000DF5FE06C18D712B701CF131EDFC304B263
:1012F000E7636D303E818F82D77796B39CE52C678C
:1013000039CBFF007E6B0D26789CB593CB118240C4
:101310000C86AD94163870E0803369444BA11529D2
:1013200083E32A236B5E7FB2326272D9CD97F74294
:10133000A1C25A8542CD69C6ADE471FA8EB24A5B4C
:1013400049AD25E4C544FBBADF71EC5120477DB5BA
:10135000E66BED87F7AB4FC8C3D0B5D35E6BA7156F
:10136000E4A165CAF9A653AFF93CEEE757EDC7C44F
:101370001ED2FBDDE3769AC7DA0B77C59355FB6D7A
:10138000C0DCABA06E037BB417CDC30D16BA0F62E1
:101390000F865E7BB3E5C6FE616F0DBE76CB24384B
:1013A0007CCFE89D2E42D4848A380A3CD85A3D41ED
:1013B00034A11B5B4CB6D3B8EBDDCC10D04F461D2F
:1013C0009372D2D57CBCBD1DE58DFAB87F0A309DE5
:1013D000F5EAFC6D02AEB6FC2F1EFCFF684AB79F13
:1013E000839C52AEAAA178F95E014FE37FEE5FC8FD
:1013F00013394D9C0B789CED9A3D72E33A0C807347
:101400008C5CE375EB62DB57A470E122334F451A25
:10141000172E5CB8509119ABF025B65B1DE3A55BA8
:101420005D61CB74D10552B870A14233D1128228CC
:1014300082FFA0A46CF6C7C464C636C94F200082E0
:101440001499EED405A5CCCB4B3794AAA91EC3ADF5
:1014500063D23CD46D474AD56CEEE6F08A03309EE9
:10146000B3A7FBA7FBE70C88AB5D1AE1E99E6A0016
:1014700063AD1AF94D7CEAC41388F6D93EC4CAD7C5
:10148000E5A56AEAB6CCF3B5FCDE75E28FD0CB8B6E
:10149000D0537CCEF6C5016C519CBF6CDCB42F9B45
:1014A000EC55DAA9BCDC6EA5279446F8BD6A8AC360
:1014B0006A07BA62C95E5D4449AB0BD5B2FFDE2A4A
:1014C0009F520A3EB5CC7DC4E2DC3719BC00FDEA70
:1014D000B638DF6ECD76AB5D71469F8FB683319C9B
:1014E000CD568A86DFB3BDCD527EA81E9B87D10A1A
:1014F000B9463FA175754BA5085AD57C3AFE1AF638
:10150000BF4B50137BDEAC766095BAC548A17E1206
:1015100016139121AC29BC6ADA3DDB83A5AB468D5D
:10152000DEB4615DD0DFD03374BEE936117A39C6DE
:101530002AFB827EB40E5922629AE25C9C21D2314F
:101540004A540B9C832EBB3F67FD6C3A9BB4AA1197
:10155000FE1B3D89BF5122CE483ADEF367B010C66C
:101560009F9AED1805665C49BF298DD01FE5A53807
:1015700064FBA77BB000CD6FCA0B6867975DB04670
:1015800079865A78B5937352CC9D8BFE54C80BEE76
:1015900008013BAAC8128C1CFA0F9610053386ED81
:1015A0001B174D6A64FB007D0305C6AD4BAFC1AB95
:1015B0008F07B6B66D21285E9EE96B63C4AF2EED32
:1015C000156FC9F1A2B7C09EC541D91FE60ACC303C
:1015D00017ADCCC11A2AB220DA20AFCB8CA8563076
:1015E000A5514ABCD015109ED23C28BE9A6D3062DF
:1015F0004E3CE3AC87798DF12C05D71EDA7F8CCC7D
:10160000E07C035F9717332B616B18319D894894F9
:10161000F900729649C3F5DEBD6B10242BA3822519
:1016200068BEA273A8B75DE1CBC2FFFC8B99C2F480
:10163000292F9FDABB86219F24AF20437E31667A13
:10164000BEEEED3069B703E3D2ED2EE34DD7D79E62
:1016500035C40B05F5BACB864316235E80F5DCB6A0
:101660008BCC70754BD773EA7394CD9DDC216024CD
:10167000AB1CAB62FC76EBDB6FB8EC94AFD57EA80D
:101680006A84E786CCAD46864F1273E951DF0FB905
:10169000A21975945916AD8B56D5F76B5583BDC5F8
:1016A0008AD3EFD7CA4BD887D99EDA0CF7A7D4C60E
:1016B00029FB495B708474BF9BBE23A1F29CE9FBAC
:1016C000F1BAB573799AC8F840BBA6EEC6BD32C66A
:1016D000E687F0E2ADD35A74D1F69CFA2EF03D8D38
:1016E000E7EA1D26C6EA5CB59E3E3737B2AEFF94E8
:1016F0006E0B8346791E6248B4A78DFDC75F352205
:101700004733B7A75489DBCD4F34199D55C71FB355
:10171000AD4FBC8E3FEA94DA907EE9B5BE1E7EEFF7
:10172000856B7DEDDFAB9DE9DF549ED92A14211C2A
:10173000A2DDC61F21719EBB85DF9F31E2CFE0F99C
:10174000C71BE3F1638AD7C76571BB0D97E7F36CDD
:101750009F47495EE5125DD1D5FF42782E22CF53D7
:101760003E8F7289FA6F7E9AAB366683308D438CDA
:101770003D2F661F9E4DF9E2A3A772DD3D972AB665
:10178000856DEDFC3D38FDFCED63441E8DC3B37BE0
:10179000FB5BF27826C1D78ACF3B05EBFC3C4E8F32
:1017A0005E023B3B06CFEEEDE3C95C05E7F5704A10
:1017B00003E77AABDD8D55F89A931DEF50E0747F07
:1017C0003A0D443F35997AF22D05CFA6A77AC61671
:1017D000FD0400CA9BF72C8F23FFED4D1EFF2DD873
:1017E000656353BFAAE1BE05538A626EEEE8B9860F
:1017F000EB74294ED3056E51F0A44A9E555CE54F1B
:101800001238F387CCF2D2E8F73753E4B897376E43
:1018100058FCF76871691ECCCC323D13D405DE74D8
:101820002CC3A3E74C7A09CF0F77962D0E6F2ECDE0
:101830003ABC5D4ED50D4F0A71B69A3CFBA4342ECE
:10184000DFFA93FC639FE3F41353FBA49923B09650
:101850006186BBDD9A1E99776237DCE38EE56556BB
:101860009E9767D5D47A53574814D37AF3D6C97C58
:101870006DF2E6592F33D6B597F6FB6A0EEFAB61E2
:101880003DF7FD145F8613FDB1CC3B7BB6BD01D6A1
:101890009BEA593BF6D42DD6F1F03221AB9ADE10FB
:1018A000E524FF47C27FB7E91733177CBB1CF790CD
:1018B000F1E1F394AC6F5A6F9E5FFEDFB8F369DD20
:1018C0001EA77AD951F87B21533E6DCDF1BEB5C527
:1018D00061CE7F0FD1F1D2FF82992218B578CF0C5B
:1018E000B758FC3D9AFD2661AC50560C867B24B15E
:1018F0006630BDACA12C4B4B2372687CA2CB079EFB
:101900000867D931D4C764266B676910AB0FB78FEE
:10191000EA1FE7455BC79FE8E3CD6973E55D796939
:10192000BC40FE8C1547DCCFA03989B3689D3DEEE5
:10193000DF9CE7DD814CE1A5B461B4B5EF537E2DAA
:10194000DED2E3EDB45BF9BF80B7B4FD7E751EA7B0
:10195000FCF5BCD32CDCB22B08631F166A192F418F
:10196000DD9299D191261159764B2032681DFFEDF9
:1019700085ED55A686FE5EE9EF1A162FB80B49E7EE
:10198000A5D65E7957DE7BF12665D7938F3735571D
:101990002FCFF358E1CA7B3F5EE04D249D37B65808
:1019A00086177977F8705E17AE4FE70D7BFDE0D3B1
:1019B0003E92B7F47817E629FF2EA45FB85C79BF92
:1019C000076FFA7AF90308B5B743789CEDDDA18E6D
:1019D000E2501886E1CA75F4162ACF8560CE75E00C
:1019E0009073032B2A112310D8114794A40231625B
:1019F000129A6C2B4830384840AD2481A47692D995
:101A00006437876EB70B9EFF332FDF053C39CC69F7
:101A1000106F9A4992EEB359F8625A5ACC179B4507
:101A200072F7D97DB4952F5CB0982FDA6AF731D868
:101A300069332D6DE47ED3326DFA735BDB9D1FCF6E
:101A4000BF59B495BD1DD756F1AE59FDBD1F1765E1
:101A5000C5B7DE2F3E01E8E8E8E8E8E8E8E8E8E8AE
:101A6000E8E8E8E8E8E8E8E8E8E8E8E8E8E876BA96
:101A7000B6CB689B94B6C7A95BA4BAC3AA1BB4BE75
:101A800080CF5616DFBD2F66ABC7025EBE7F7BB32D
:101A90005CF93E14706BBBF3FB026E6FC775057C7F
:101AA000B6D2E8F19EC53BA8D1BB67CC058DDEFF61
:101AB000C2A2A3A3A3A3A3A3A3A3A3A3A3A3A3A3D8
:101AC000A3A3A3A3A3A3A3A35BEBCA36A1ED32DA1E
:101AD00026A5ED71EA16A9EEB0EA062D2FE0B53B7A
:101AE00086737E7DF6C2D91DDBFABE80FB7DF6993A
:101AF000FCB25AF6E9F74301F77B3BB99FDFFF2DB4
:101B0000E0B5E5B987F3B775BC6BEE686FC7B9632D
:101B1000BCE7E1ACD1C3393E01F955A3E757747472
:101B20007474747474747474747474747474747475
:101B300074747474748DAE6C13DA2EA36D52DA1E45
:101B4000A76E91EA0EAB6ED0F2025EB92AACF3A793
:101B50002FAC5DF5F80EB8AFB275F2C36AD9DA579B
:101B6000FF15F0CA4EEEE7ABFE1D70CB730FE7EF2B
:101B7000DE01778293C7B9EA56C005278F0BEBDBEE
:101B80002FAC48CFD1D1D1D1D1D1D1D1D1D1D1D197
:101B9000D1D1D1D1D1D1D1D1D1D1D145BAB24D68E4
:101BA000BB8CB649697B9CBA45AA3BACBA41AB0B2E
:101BB000F8A8D99EC69749FBEC8D2FDBD3A8B92F87
:101BC000E0CB43FDF5F3B7D5EAAFE56128E0CB8381
:101BD0009DDC6F79E80AF8A8B13CF770FE5113EF6D
:101BE000DAF6646FC76D4FF19E8F2F1A7D7C894F97
:101BF000C0A4D5E893161D1D1D1D1D1D1D1D1D1DF9
:101C00001D1D1D1D1D1D1D1D1D1D1D1D5DA32BDB72
:101C100084B6CB689B94B6C7A95BA4BAC3AA1BB40D
:101C2000BA80A78D0B619EBF3E7B61EE427AF7CDF5
:101C3000BFEC7C91E5C977AB65B92F5E76FFDE011D
:101C40002FECE47EBEE80A78DA589E7B387F7A2B48
:101C5000E02ED8DB71F17F104CCB30D7E8611E9FAE
:101C600080FC55A3E7AFE8E8E8E8E8E8E8E8E8E85A
:101C7000E8E8E8E8E8E8E8E8E8E8E8E8E81A5DD94C
:101C800026B45D46DBA4B43D4EDD22D51D56D7A05B
:101C9000FF001DF3947411241FBECFEFD0E4DEBF0C
:101CA000CDBF1EE0A0E0B1E0E8E3F8E901E00BBF42
:101CB00002C007900D92AA3AB107D9F725E3AAEA24
:101CC000BEE001C01D92A835B207E1F70E94BAB884
:101CD0000C941ACC0C94CEBFCF92DF92EF92FF926D
:101CE0000F931F93CF93DF938C01AC0197FDBDC081
:101CF000101611062CF5809138169091391684171C
:101D0000950734F588E3E82E86E1F82EFB01EE0F07
:101D1000FF1FEE0DFF1D80819181841795071CF533
:101D2000CB01880F991F82959295907F9827807F8D
:101D300098271016110674F09195819591090AC0A3
:101D400080917A1790917B17841795070CF4F8C04F
:101D500080E090E0DF91CF911F910F91FF90EF9085
:101D6000DF90CF900895EB0177FD84C0D595C7959E
:101D7000FE01EE0FFF1FEE0DFF1D2081318177FD6B
:101D800029C0208131812417350709F475C0DB0192
:101D900080E090E017C0CE010196A817B907D4F0F3
:101DA000ED01C80FD91FD7FD5EC0D595C795FE01BF
:101DB000EE0FFF1FEE0DFF1D2081318142175307EB
:101DC00009F45BC02417350734F3DE011197A81717
:101DD000B90734F7241735070CF0AFC0C617D7077B
:101DE0000CF09EC0CE010196880F991FF701E80FF5
:101DF000F91F0190F081E02DE217F30709F493C079
:101E00006A01C21AD30A0D2C000CEE08FF08C601A5
:101E100077276627AF01421B530B9A01032E000C54
:101E2000440B550B0E94ABC3DA01C9019C5FAF4F55
:101E3000BF4FAC01BD01BBE07595679557954795C0
:101E4000BA95D1F7CC0FDD1FC295D295D07FDC2794
:101E5000C07FDC27CE01DD0FAA0BBB0B840F951FC3
:101E6000A61FB71F66CF2196A0CF44275527481B32
:101E7000590B3ECF21967ACF9A01CE01880F991F38
:101E800082959295907F9827807F982742175307D5
:101E90000CF04FCF1C161D060CF04BCFCE0181501D
:101EA0009048880F991FF701E80FF91F0190F08102
:101EB000E02DE217F307B9F1BA016E1B7F0BCB01DE
:101EC000770FAA0BBB0B772766272E1B3F0B032E22
:101ED000000C440B550B0E94ABC3DA01C9019C5F97
:101EE000AF4FBF4F6C017D015BE0F594E794D79451
:101EF000C7945A95D1F7AE0141505109EA01CC0F70
:101F0000DD1FC295D295D07FDC27C07FDC27CE01B4
:101F1000DD0FAA0BBB0B8C0D9D1DAE1DBF1D09CF88
:101F200080E090E006CFCE01880F991F82959295B0
:101F3000907F9827807F9827FCCE80E090E0A6CF06
:101F4000DAE7ED2ED7E1FD2EE1CE11980E94F317CE
:101F500080E00E94F31780E00E94F317119A089521
:101F6000EF92FF920F931F93CF93DF93F62EE72EFE
:101F70008901D42FC52F119880680E94F3178E2DE8
:101F80000E94F3178F2D0E94F317802F0E94F317E2
:101F9000812F0E94F3178D2F0E94F3178C2F0E9420
:101FA000F317119ADF91CF911F910F91FF90EF904E
:101FB00008950F931F93CF93DF93162F072FD42FDE
:101FC000C52F119880680E94F317802F0E94F31785
:101FD000812F0E94F3178D2F0E94F3178C2F0E94E0
:101FE000F317119ADF91CF911F910F9108951F93CD
:101FF000CF93DF93D62F172FC42F11988068F3D774
:10200000812FF1D78D2FEFD78C2FEDD7119ADF913C
:10201000CF911F910895CF93DF93EB011198E3D7F0
:102020008D2FE1D78C2FDFD780E0DDD780E0DBD7A5
:10203000119ADF91CF910895CF93DF93EB0111981F
:10204000D2D78D2FD0D78C2FCED780E0CCD780E0C1
:10205000CAD7C82FD0E080E0C6D7119A9E01382B8E
:10206000C901DF91CF910895CF92DF92EF92FF9255
:10207000CF93C62FF72E1198B6D78F2DB4D78C2FAC
:10208000B2D780E0B0D780E0AED7C82ED12CE12CFB
:10209000F12C80E0A8D7C82F80E0A5D790E0A0E081
:1020A000B0E0DC01992788279C2BC82AD92AEA2A84
:1020B000FB2A80E098D7119AA7019601582BCA01F4
:1020C000B901CF91FF90EF90DF90CF900895CF931B
:1020D000C22FB32F2091AE0E3091AF0EF901ED5704
:1020E000F44EA2E2A083AFEFA183A283A383C483B3
:1020F000B5834683285F3F4F3093AF0E2093AE0EDB
:10210000578361157105A9F1FC01D901AD57B44E92
:10211000260F371FA9014D57544E84918D93319648
:10212000A417B507D1F73093AF0E2093AE0E6370AE
:1021300001F1C90101969093AF0E8093AE0E1C92EF
:102140006330B9F0A9014E5F5F4F5093AF0E4093DB
:10215000AE0EFC01ED57F44E1082623051F02D5F4F
:102160003F4F3093AF0E2093AE0EFA01ED57F44E71
:102170001082CF91089568EE74E280E190E05CDF18
:102180009093AB0E8093AA0E64EE74E280E190E02F
:1021900053DF9093AD0E8093AC0E8F3F9F4081F044
:1021A0001092831B8FEF8093841B8093851B24E008
:1021B00030E03093AF0E2093AE0E8093861B0895CF
:1021C000219A299A87EA91E60197F1F700C0000069
:1021D000299887EA91E60197F1F700C00000299A53
:1021E00087EA91E60197F1F700C000000895DC014D
:1021F000CB01B2602091AE0E3091AF0EF901ED57D8
:10220000F44E80839183A283B38387E08483158215
:102210001682285F3F4F3093AF0E2093AE0E86E2BA
:1022200087830895DC01CB01B4602091AE0E30911C
:10223000AF0EF901ED57F44E80839183A2832C5F9A
:102240003F4F3093AF0E2093AE0EB383089520918D
:10225000AE0E3091AF0EF901ED57F44E49E04083D8
:102260004FEF418342834383648375838683285F72
:102270003F4F3093AF0E2093AE0E97830895209179
:10228000AE0E3091AF0EF901ED57F44E80831182FE
:1022900012822C5F3F4F3093AF0E2093AE0E80E141
:1022A000838308952091AE0E3091AF0EF901ED5762
:1022B000F44E8083118212822C5F3F4F3093AF0E19
:1022C0002093AE0E83E083830895A0E0B0E0BE606B
:1022D0002091AE0E3091AF0EF901ED57F44E808390
:1022E000918312822C5F3F4F3093AF0E2093AE0E3E
:1022F0008EE0838308952091AE0E3091AF0EF901E8
:10230000ED57F44E8083118212822C5F3F4F309341
:10231000AF0E2093AE0E8FE183830895A0E0B0E06E
:10232000BD602091AE0E3091AF0EF901ED57F44E25
:102330008083918312822C5F3F4F3093AF0E2093A6
:10234000AE0E8DE0838308950F931F93FB0150E041
:1023500060E070E0440F551F661F771F440F551F44
:10236000661F771F440F551F661F771F440F551FA9
:10237000661F771F440F551F661F771F440F551F99
:10238000661F771F440F551F661F771F022F10E02F
:1023900020E030E03068402B512B622B732B8F01F3
:1023A00020E030E0ECE0000F111F221F331FEA9500
:1023B000D1F7402B512B622B732BA0E0B0E0F5E15D
:1023C000880F991FAA1FBB1FFA95D1F7482B592BCD
:1023D0006A2B7B2B8091AE0E9091AF0EFC01ED57D6
:1023E000F44E40835183628304969093AF0E8093A2
:1023F000AE0E73831F910F9108958091AE0E909150
:10240000AF0EFC01ED57F44E108211821282049639
:102410009093AF0E8093AE0E81E283830895209156
:10242000AE0E3091AF0EF901ED57F44E808311825C
:1024300012822C5F3F4F3093AF0E2093AE0E85E09B
:1024400083830895DC01CB01B1602091AE0E309101
:10245000AF0EF901ED57F44E80839183A2832C5F78
:102460003F4F3093AF0E2093AE0EB3830895CF92BB
:10247000DF92EF92FF929A01AB0160E070E06A0197
:102480007B0199E0CC0CDD1CEE1CFF1C9A95D1F76A
:10249000A90160E070E077604C295D296E297F29F1
:1024A00090E0A0E0B0E023E1880F991FAA1FBB1FB6
:1024B0002A95D1F7842B952BA62BB72B2091AE0E06
:1024C0003091AF0EF901ED57F44E80839183A283D2
:1024D0002C5F3F4F3093AF0E2093AE0E87E0838387
:1024E000FF90EF90DF90CF9008958F929F92AF92E0
:1024F000BF92CF92DF92EF92FF920F931F93C62E5F
:10250000842EA90160E070E099E0440F551F661F1A
:10251000771F9A95D1F720E030E03860402B512B9F
:10252000622B732B912CA12CB12C22E1880C991CCD
:10253000AA1CBB1C2A95D1F7482959296A297B294D
:10254000D12CE12CF12C33E1CC0CDD1CEE1CFF1C5A
:102550003A95D1F74C295D296E297F2990E0A0E0BA
:10256000B0E0E4E1880F991FAA1FBB1FEA95D1F7DD
:10257000842B952BA62BB72B2091AE0E3091AF0E4E
:10258000F901ED57F44E80839183A2832C5F3F4F76
:102590003093AF0E2093AE0EB3831F910F91FF9037
:1025A000EF90DF90CF90BF90AF909F908F90089565
:1025B000CF93A091AE0EB091AF0EFD01ED57F44E4A
:1025C000C6E1C083CFEFC183C283C3838483958375
:1025D000668377834087518722871C96B093AF0E1E
:1025E000A093AE0E3387CF910895CF92DF92EF92F2
:1025F000FF920F931F93CF93A091AE0EB091AF0EA9
:10260000FD01ED57F44ECFE0C083CFEFC183C2830D
:10261000C38384839583668377834087518722872A
:10262000338704871587E686F786C08AD18A128A9F
:102630005496B093AF0EA093AE0E138ACF911F9114
:102640000F91FF90EF90DF90CF9008950F931F931D
:10265000CF93DF93B32FC091AE0ED091AF0EFE019A
:10266000ED57F44E3CE03083AFEFA183A283A38308
:1026700084839583668377834087518722879E0171
:10268000245F3F4F3093AF0E2093AE0EB387D90136
:10269000AD57B44EF80140E001C09C01EF015191EB
:1026A000C90101969093AF0E8093AE0E5D934F5F7C
:1026B00058815111F2CF437011F1B9016E5F7F4F14
:1026C0007093AF0E6093AE0EFC01ED57F44E108286
:1026D0004330A9F002969093AF0E8093AE0EFB01AB
:1026E000ED57F44E1082423051F02C5F3F4F309343
:1026F000AF0E2093AE0EFC01ED57F44E1082DF9129
:10270000CF911F910F910895CF92DF92EF92FF9298
:102710000F931F93CF93DF938091AE0E9091AF0EE6
:10272000FC01ED57F44E108211821282138221E0D7
:1027300024832FEF2583268308969093AF0E8093F2
:10274000AE0E27831198C090AA0ED090AB0EE12C4C
:10275000F12C80E8D80E80E1E81EF11C8E2D8068F7
:1027600042D48D2D40D48C2D3ED48091AE0E9091CC
:10277000AF0E892B81F003E81BE1C0E0D0E0F80147
:1027800081918F0130D421968091AE0E9091AF0E41
:10279000C817D907A0F3119A4091AA0E5091AB0E19
:1027A0008091AE0E9091AF0E480F591F5F7068EE8A
:1027B00074E280E190E0FDDB64EE74E280E190E0A1
:1027C0003BDC9093AD0E8093AC0E68EE74E280E13A
:1027D00090E032DC9093AB0E8093AA0E2091AC0E69
:1027E0003091AD0E8217930739F7DF91CF911F918A
:1027F0000F91FF90EF90DF90CF9008958091AE0EF3
:102800009091AF0EFC01ED57F44E108211821282AE
:10281000138221E024832FEF25832683089690934B
:10282000AF0E8093AE0E27830895CF92DF92EF9282
:10283000FF921198C090AA0ED090AB0EE12CF12C13
:1028400080E8D80E80E1E81EF11C8E2D8068CBD385
:102850008D2DC9D38C2DFF90EF90DF90CF90C3C307
:10286000119A4091AA0E5091AB0E8091AE0E9091AC
:10287000AF0E480F591F5F7068EE74E280E190E080
:1028800098CB64EE74E280E190E0D6DB9093AD0EDD
:102890008093AC0E68EE74E280E190E0CDDB909323
:1028A000AB0E8093AA0E21E04091AC0E5091AD0E7C
:1028B0004817590709F020E0822F0895EF92FF9200
:1028C0000F931F93CF93DF93C091AE0ED091AF0EB5
:1028D000FE01ED57F44EAAE1A083AFEFA183A283DE
:1028E000A38364837583868397834087CA01918716
:1028F00012868E01045F1F4F1093AF0E0093AE0E31
:102900001386D801AD57B44E7901E40EF51EF901D6
:10291000B801621B730B81919B012E0F3F1F3093F7
:10292000AF0E2093AE0E8D93EE15FF05A1F72B96FB
:10293000C40FD51F040F151F4370552741155105AE
:1029400021F1CE0102969093AF0E8093AE0EF80166
:10295000ED57F44E108243305105B9F09E012D5FC2
:102960003F4F3093AF0E2093AE0EFC01ED57F44E67
:1029700010824230510549F02496D093AF0EC09397
:10298000AE0EF901ED57F44E1082DF91CF911F91F9
:102990000F91FF90EF900895DC01CB01A170BB2750
:1029A000B9612091AE0E3091AF0EF901ED57F44EA2
:1029B00080839183A2832C5F3F4F3093AF0E20938F
:1029C000AE0E89E183830895DC01CB01BB27BA6198
:1029D0002091AE0E3091AF0EF901ED57F44E808389
:1029E0009183A2832C5F3F4F3093AF0E2093AE0EA6
:1029F0008AE18383089583E89BE108958091AE0E78
:102A00009091AF0E0895CF92DF92EF92FF920F93C5
:102A10001F93CF93DF93CDB7DEB729970FB6F89406
:102A2000DEBF0FBECDBF6C017B01142F09E09E01FC
:102A30002F5F3F4F40E060E070E085E20ED587FDFC
:102A400081C02F8130E0322F22278885280F311D49
:102A50006981862F660F990BAA0BBB0BBA2FA92F82
:102A6000982F88274A81840F911DA11DB11D112324
:102A700009F477C0880F991FAA1FBB1F880F991FE1
:102A8000AA1FBB1F880F991FAA1FBB1F880F991F62
:102A9000AA1FBB1FBC01CD01660F771F881F991F9E
:102AA00040E050E00E94ABC3C901DA01811520E883
:102AB00092072FEFA207B20724F480E090E8AFEF6F
:102AC000BFEF8115E0E89E07A105B10524F08FEF67
:102AD0009FE7A0E0B0E0F601918380836C81862FB0
:102AE000660F990BAA0BBB0BBA2FA92F982F88271B
:102AF0002D81820F911DA11DB11D6627782F892F71
:102B00009A2F28EC30E040E050E00E94ABC3211542
:102B1000F0E83F07FFEF4F075F0724F420E030E8BD
:102B20004FEF5FEFDA01C901811520E89207A10597
:102B3000B10524F08FEF9FE7A0E0B0E0F7019183AB
:102B4000808380E029960FB6F894DEBF0FBECDBF1C
:102B5000DF91CF911F910F91FF90EF90DF90CF9079
:102B600008956627782F892F9A2F40E050E00E9421
:102B7000ABC39ACF8F929F92AF92BF92CF92DF92C8
:102B8000EF92FF920F931F93CF93DF93CDB7DEB7F2
:102B9000A5970FB6F894DEBF0FBECDBF8C01045AC7
:102BA0001F4FF801808191810E940AC8CC9729F4B7
:102BB0000FC0181619060CF064C0F80180819181CD
:102BC0000E940AC88B35910561F38C33910589F712
:102BD00080EBC82E8EE0D82EE12CF12C09C08C336E
:102BE00009F468C075012DE4A216B10409F462C0AD
:102BF000F801808191810E940AC8F60181936F01DA
:102C00005701FFEFAF1ABF0A8E3349F7B70180EBC8
:102C10009EE0DFD7882309F44CC080EB9EE0EFD71D
:102C2000D82E82EB9EE0EBD7182F8B3408F041C0F2
:102C3000A82EB12CEA14FB0409F03BC0470182E046
:102C4000881A9108C4018055914FD9D7082F84EB79
:102C50009EE0D5D7F82EB40180EB9EE0ABD70813E9
:102C600029C086EB9EE0CBD79FEF980F963010F5EA
:102C7000813069F1833041F1843019F58CEF9FEF99
:102C800005C0019609F08DCF80E090E0A5960FB6C3
:102C9000F894DEBF0FBECDBFDF91CF911F910F9192
:102CA000FF90EF90DF90CF90BF90AF909F908F906C
:102CB00008955701F501E055F14F10828FEF9FEF16
:102CC000E5CF8AEF9FEFE2CF8EEF9FEFDFCF5091FE
:102CD00097045523A1F0E0919804F0919904808124
:102CE000D81681F0319681E090E007C041919C01B7
:102CF0002F5F3F4FD41641F0C9018517B8F38FEF0E
:102D00009FEFC4CF80E090E02FEF2F0DE0919A0469
:102D1000F0919B04E80FF91F3081231780F7880F8B
:102D2000991FE0919C04F0919D04E80FF91F822FF8
:102D300090E0880F991F0190F081E02DE80FF91FB6
:102D40008080918081149104D1F21A5009F100E041
:102D5000CE0101965C01802F90E08854914F4FD7AF
:102D6000902F9695F501E90FF11D80830E5F0117F5
:102D700090F3B501812F8695F4010995181619066F
:102D800014F410920601D092FE0EF092FD0E7ECF4A
:102D9000FE0131965F01EDCF7F928F929F92AF92AD
:102DA000BF92CF92DF92EF92FF920F931F93CF9338
:102DB000DF93CDB7DEB7CC54D1090FB6F894DEBFA0
:102DC0000FBECDBF4C01862FF42EC22E722E770C73
:102DD0009BE59983BE016E5F7F4F44D7BE016C5F58
:102DE0007F4F88E0870D3ED7BE016A5F7F4F8F2DF2
:102DF00039D7CC2009F45EC07801CA94D12C8FEF6A
:102E0000C81AD80A5801AC0CBD1C8E01085F1F4FB0
:102E1000B801F70181917F0125D70E5F1F4FEA149A
:102E2000FB04B1F7CC0CDD1C88E090E08C0F9D1FFB
:102E3000C80ED91E672D70E06A5F7F4FCE010296E3
:102E4000B9D6B6010FD78DE5F60182831AE0170DCA
:102E50001093FF0E412F50E0BE016F5F7F4F80E067
:102E60009FE00E9482C7F401E25AFF4F80E09FE09A
:102E700091838083329610833D970190F081E02DFD
:102E80008091000F808380E090E0C45BDF4F0FB63D
:102E9000F894DEBF0FBECDBFDF91CF911F910F9190
:102EA000FF90EF90DF90CF90BF90AF909F908F906A
:102EB0007F9008956E0198E0C90ED11CBBCF855A52
:102EC0009F4F2EE3FC01208308950F931F93E09101
:102ED0000701F0910801F0938C2BE0938B2B5CDFC2
:102EE0001F910F9108951092FE0E1092FD0EFC019D
:102EF000EE5AFF4F208121113DCE8EEF9FEF0895B6
:102F00009093080180930701609306010895CF9381
:102F1000DF93FC0120918B2B30918C2B232B81F59F
:102F200080910601811103C0DF91CF910895EF01D7
:102F3000809107019091080190938C2B80938B2BAB
:102F4000E45AFF4F8081918122D6FE01E25AFF4F61
:102F500080E09FE09183808332968091FF0E808392
:102F60003D970190F081E02D8091000F808380914A
:102F7000060181508093060181E0DF91CF91089591
:102F800080E0DF91CF9108952091FE0EFC01208317
:102F90008091FD0EFB0180831092FE0E1092FD0EBB
:102FA00008958091FE0E811110C09091FD0E911137
:102FB0000BC090910601911107C020918B2B30918D
:102FC0008C2B81E0232B09F4089580E0089584B1CF
:102FD000806A84B92698099A119A239A2B9A81E5D6
:102FE0008CBD1DBC08958EBD0DB407FEFDCF8EB502
:102FF00008954F925F926F927F928F929F92AF92BD
:10300000BF92CF92DF92EF92FF920F931F93CF93D5
:10301000DF9300D000D000D0CDB7DEB78C01DC014B
:103020008D919D910D90BC91A02D89839A83AB8346
:10303000BC83F801C0A0D1A0E2A0F3A08084918459
:10304000A284B384A7019601C501B4010E9458C4AB
:103050002B013C01D80114962D913D914D915C912D
:103060001797C701B6010E94A7C529813A814B81F4
:103070005C810E94F0C3A30192010E94F0C3F80199
:1030800064A375A386A397A389819A81AB81BC8130
:10309000B05889839A83AB83BC83A5019401C50191
:1030A000B4010E94F0C3A70196010E9458C49B017D
:1030B000AC0169817A818B819C810E94EFC3D80128
:1030C00098966D937D938D939C939B97F80144A65E
:1030D00055A666A677A6D0961D921D921D921C92AB
:1030E000D39714AA15AA16AA17AAD8961D921D92AC
:1030F0001D921C92DB979801205C3F4F50968D915A
:103100009D910D90BC91A02DF90180839183A283A4
:10311000B38326960FB6F894DEBF0FBECDBFDF9106
:10312000CF911F910F91FF90EF90DF90CF90BF90C4
:10313000AF909F908F907F906F905F904F90089589
:103140004F925F926F927F928F929F92AF92BF92B7
:10315000CF92DF92EF92FF92CF93DF93EC018CAC92
:103160009DACAEACBFAC7C0180E4E80EF11CA501C7
:10317000940160E070E080E89FE30E94EFC3F701F4
:1031800020813181428153810E94A7C52B013C01DE
:103190002C893D894E895F89C501B4010E94A7C56C
:1031A0009B01AC01C301B2010E94F0C39B01AC01C1
:1031B000F7016083718382839383CCA8DDA8EEA896
:1031C000FFA8C8AED9AEEAAEFBAE88A899A8AAA857
:1031D000BBA88CAA9DAAAEAABFAA688979898A8948
:1031E0009B890E94EFC368AB79AB8AAB9BAB2CA1E8
:1031F0003DA14EA15FA10E94A7C5288D398D4A8DA2
:103200005B8D0E94F0C32B013C0128A539A54AA57E
:103210005BA5C501B4010E94A7C59B01AC01C30118
:10322000B2010E94F0C34B015C012CA53DA54EA547
:103230005FA5C701B6010E94A7C59B01AC01C501EE
:10324000B4010E94F0C36B017C01688F798F8A8F73
:103250009B8F20E030E040E85FE30E94A3C5181692
:1032600004F5C12CD12C80E8E82E8FE3F82E2C8DAC
:103270003D8D4E8D5F8DC701B6010E94A7C50E948E
:10328000C5C4CB01DF91CF91FF90EF90DF90CF903D
:10329000BF90AF909F908F907F906F905F904F9076
:1032A000089520E030E0A901C701B6010E9454C48E
:1032B00087FFDDCFC12CD12C7601D9CFEF92FF92C1
:1032C0000F931F93CF93DF931F92CDB7DEB7D90132
:1032D000880F36E014EA5AE024E81093BC005093BB
:1032E0008D2B04C09091BC0097FD0FC090918D2B49
:1032F0009111F8CF315089F78FEF0F90DF91CF9177
:103300001F910F91FF90EF9008959091B900987FD1
:1033100099839981903169F0983361F3983049F03D
:103320008EEF0F90DF91CF911F910F91FF90EF9053
:1033300008958093BB002093BC0050938D2B04C054
:103340009091BC0097FD05C090918D2B9111F8CF05
:10335000D1CF9091B900987F99839981903251F2A1
:10336000983341F29831C1F084E98093BC0085E044
:1033700080938D2B04C08091BC0087FD04C0809198
:103380008D2B8111F8CF8DEF0F90DF91CF911F9191
:103390000F91FF90EF900895423009F449C0411118
:1033A00037C0015008F454C011967D0191E0E91A2C
:1033B000F108F70190819093BB002093BC005093DB
:1033C0008D2B04C09091BC0097FD05C090918D2B72
:1033D0009111F8CF8FCF9091B900987F99839981FF
:1033E000903309F487CF983309F484CF983209F0E9
:1033F000BBCFD7CF9091B900987F998399819033B3
:1034000009F478CF983309F475CF983209F0ACCF2E
:103410006093BB002093BC0050938D2B04C090910F
:10342000BC0097FDD8CF90918D2B9111F8CF62CF32
:103430007093BB002093BC0050938D2B04C09091DF
:10344000BC0097FDD7CF90918D2B9111F8CF52CF23
:1034500084E98093BC0080E050CFCF92DF92EF925E
:10346000FF920F931F93CF93DF931F92CDB7DEB7D9
:10347000C82ECC0C8C2D816056E0F4EAEAE094E88A
:10348000D92E14ECF093BC00E0938D2B04C09091E6
:10349000BC0097FD08C090918D2B9111F8CF515031
:1034A00089F78FEF0CC09091B900987F998399812B
:1034B000903179F0983399F3983059F08EEF0F905E
:1034C000DF91CF911F910F91FF90EF90DF90CF9000
:1034D0000895C092BB00D092BC00E0938D2B04C035
:1034E0009091BC0097FD05C090918D2B9111F8CF64
:1034F000D6CF9091B900987F99839981903279F2D3
:10350000983369F2983189F084E98093BC0085E0B2
:1035100080938D2B04C08091BC0087FD04C08091F6
:103520008D2B8111F8CF8DEFCACF423009F44AC0FC
:1035300041111BC0F093BC00E0938D2B04C090910F
:10354000BC0097FD22C090918D2B9111F8CFA7CF91
:103550009091B900987F99839981903309F49FCF16
:10356000983309F49CCF983279F66093BB00D092DF
:10357000BC00E0938D2B04C09091BC0097FD32C03D
:1035800090918D2B9111F8CF8ACF9091B900987FAF
:1035900099839981903131F0983309F480CF983034
:1035A00009F08CCF8093BB00D092BC00E0938D2BB0
:1035B00004C09091BC0097FD24C090918D2B911177
:1035C000F8CF6DCF7093BB00D092BC00E0938D2BF1
:1035D00004C09091BC0097FDBBCF90918D2B9111B1
:1035E000F8CF5DCF9091B900987F998399819033FE
:1035F00009F455CF983309F452CF983209F084CFAB
:1036000099CF9091B900987F99839981903439F03E
:10361000983409F444CF983309F076CF40CF002393
:1036200001F179019701015049F11093BC00E09339
:103630008D2B04C09091BC0097FD05C090918D2BFF
:103640009111F8CF2CCF9091B900987F99839981EF
:10365000903561F0983509F057CF8091BB00F701A4
:10366000808384E98093BC0080E029CF9091BB00E7
:10367000D7019D937D010111D5CFF3CFD092BC002E
:10368000D6CF8091B12C8F5F8093B12C8091B12CDB
:10369000853008F446C0E091B22CF0E0EE56F44DCF
:1036A000E081F0E08091B52CEF56F34D8083E091FE
:1036B000B22CF0E0EF56F44D8081E091B22CF0E0B6
:1036C000EF56F44D85FD21C080812091B22CE09110
:1036D000B22CF0E0EF56F44D9081382F32953695AC
:1036E0003695337083E0820F830F9F71890F80932B
:1036F000B22C8091B22C8093902B1092B12C10920E
:10370000B52C85E98093BC00089590818091B22CFE
:1037100092959695969593708A5F890F8093B22CB7
:10372000E8CF8091B22C8093902B1092B52C85E934
:103730008093BC00089581E18093B800E9EBF0E04C
:1037400080818C7F808385E08093BC001092BA00DA
:103750001092B22C10928E2B1092902B0895809183
:103760008D2B811104C08091B52C81112EC09091B8
:10377000902B80918E2B981779F18091B52C811127
:1037800027C08091BC0084FD25C08091902B809340
:10379000B22CE091B22CF0E0EE56F44DE081F0E076
:1037A000EF56F34D10828091902B8E5F8093902B7B
:1037B00010928F2B85E080938D2B81E08093B52C28
:1037C00085EA8093BC0080E008955BDF8CEF08956C
:1037D0008EEF08958DEF08958FEF0895CF92DF92C9
:1037E000EF920F93CF93DF93003208F08BC0E42F5A
:1037F000F0E0A02FB0E01196AE0FBF1F5091902BBC
:1038000090918E2B591709F477C05091902B90917D
:103810008E2B591708F464C0C091902B90918E2B79
:10382000D0E0C91BD109AC17BD070CF06BC0002458
:10383000F695E7950794F695E7950794FE2FE02D0A
:10384000E02BA0918E2B91E09A0F90938E2BB0E0FD
:10385000AF56B44DEC93E0918E2B91E09E0F909378
:103860008E2BF0E0EF56F44DE082E0918E2B91E04C
:103870009E0F90938E2BF0E0880FEF56F44D8083CF
:103880004230E8F1E0918E2B81E08E0F80938E2BF9
:10389000F0E0EF56F44D7083E0918E2B81E08E0FB7
:1038A00080938E2BF0E0EF56F44D60838FEF800F06
:1038B000002371F0D901E0918E2B91E09E0F90933F
:1038C0008E2BF0E09D91EF56F44D9083815098F748
:1038D00080E0DF91CF910F91EF90DF90CF9008952E
:1038E000C0908E2B9091902BD12CC91AD108CFEF7C
:1038F000D0E0CC19DD0997CFCFEFD0E094CF4423AF
:10390000A9F2CACF8FEFE5CFCF92DF92EF920F935C
:10391000CF93DF93003208F09CC0E42FF0E0A02F9B
:10392000B0E01296AE0FBF1F5091902B90918E2B4E
:10393000591709F488C05091902B90918E2B5917EC
:1039400008F475C0C091902B90918E2BD0E0C91BCC
:10395000D109AC17BD070CF07CC00024F695E795A3
:103960000794F695E7950794FE2FE02D0062E02B73
:10397000A0918E2B91E09A0F90938E2BB0E0AF56D2
:10398000B44DEC93E0918E2B91E09E0F90938E2B93
:10399000F0E0EF56F44DE082E0918E2B91E09E0F27
:1039A00090938E2BF0E0EF56F44D982F990F908363
:1039B000423008F44BC0E0918E2B91E09E0F909323
:1039C0008E2BF0E0EF56F44D7083E0918E2B91E05A
:1039D0009E0F90938E2BF0E0EF56F44D6083E091B4
:1039E0008E2B91E09E0F90938E2BF0E0880F8160DC
:1039F000EF56F44D8083E0918E2B81E08E0F809303
:103A00008E2BF0E0EF56F44D3083E0918E2B81E069
:103A10008E0F80938E2BF0E0EF56F44D208380E0E4
:103A2000DF91CF910F91EF90DF90CF900895C090EC
:103A30008E2B9091902BD12CC91AD108CFEFD0E0CA
:103A4000CC19DD0986CFCFEFD0E083CF442339F204
:103A5000BCCF8FEFE5CF20918E2B9091902B81E002
:103A6000291380E00895FB0124853585D901AB5ADF
:103A7000BF4FED91FC911197908195FFFDCFF9011A
:103A8000ED5AFF4F0190F081E02D8083ED91FC9184
:103A900080818064808380E090E008950F931F937D
:103AA000CF93DF93DC011C962D913C911D97F9017A
:103AB000EF5AFF4F90818901005B1F4FD8018C9115
:103AC0009817A9F18081D901A80FB11DCC91D0E040
:103AD0008081D901A80FB11D1C92808190E00196D0
:103AE00060E570E00E9476C38083D901A55ABF4F7C
:103AF0008C9190E0C817D90759F09081F801808126
:103B0000981731F0CE01DF91CF911F910F91089559
:103B1000F901EE5AFF4F80818823A1F38081815003
:103B20008083CE01DF91CF911F910F910895CFEF48
:103B3000DFEFE8CFCF93DF93EC01FC01EF5AFF4FAB
:103B40001082319710823296108280E5FE01119228
:103B50008A95E9F76EE47DE183E39DE10E94C0C7A9
:103B6000FC01D587C487C45ADF4F99838883DF91CE
:103B7000CF910895DC011C96ED91FC911D97EE5AB2
:103B8000FF4F908181E0911101C080E00895DC0138
:103B90001C96ED91FC911D97DF01AF5ABF4F1C920F
:103BA00011971C9212961C9280E5DF011D928A9556
:103BB000E9F708956115710551F0FC01680F791F4F
:103BC00080E09191890FE617F707D9F7089580E013
:103BD00008956115710589F0FC01680F791F8191C5
:103BE00090ED980F9A3030F08F7D8154863010F030
:103BF00080E008956E177F0791F781E00895FC013A
:103C0000208190ED920F9A30A0F4292F2295207FE9
:103C1000918180ED890F8A3050F08FEB890F8630CB
:103C2000C0F08FE9890F8630D0F489EA890F822BA2
:103C300008958FEB820F863020F427532295207F42
:103C4000E7CF8FE9820F863040F427552295207FF9
:103C5000DFCF89EC890F822B089520E0D9CF80E057
:103C6000822B0895E82FEF70F0E0E354FB4F908132
:103C7000FB01918382958F70E82FF0E0E354FB4FB6
:103C80008081FB01808308958F929F92AF92BF92B3
:103C9000EF92FF920F931F93CF93DF93EC01BC0140
:103CA00097FD99C08091F6149091F71486179707A5
:103CB0000CF077C0809136169091371686179707CB
:103CC0000CF486C08091961590919715A0EAB0E00B
:103CD00040E050E006C0A7014F5F5F4FA417B50753
:103CE000C4F07D01E40EF51EF594E794F701EE0FA4
:103CF000FF1FEA50FB4E208131816217730709F4E0
:103D00006FC0261737073CF3D7011197A417B507E3
:103D100044F7261737070CF06DC080EAE816F10467
:103D200009F43FC0F701EE0FFF1FE850FB4E408142
:103D300051812417350709F453C04B01821A930AA5
:103D4000092C000CAA08BB08C40177276627FA01D2
:103D5000E21BF30B9F01032E000C440B550B0E943A
:103D6000ABC3DA01C9019C5FAF4FBF4FAC01BD01CE
:103D70000BE075956795579547950A95D1F7C7015B
:103D8000880F991F82959295907F9827807F98271A
:103D9000092E000CAA0BBB0B840F951FA61FB71F83
:103DA00002C080E090E02091F6143091F714C21721
:103DB000D3071CF4919581959109DF91CF911F91C3
:103DC0000F91FF90EF90BF90AF909F908F900895CC
:103DD00080E094E1E8CF66277727681B790B62CFF4
:103DE000C701880F991F82959295907F9827807FB1
:103DF0009827D9CF62177307A4F6E114F10489F26A
:103E0000870101501109F801EE0FFF1FEA50FB4E28
:103E1000408151812417350719F3641B750BCB01C1
:103E2000770FAA0BBB0B77276627241B350B032EB6
:103E3000000C440B550B0E94ABC3DA01C9019C5F17
:103E4000AF4FBF4FAC01BD01EBE07595679557953E
:103E50004795EA95D1F7C801880F991F82959295E9
:103E6000907F9827807F9827092E000CAA0BBB0B08
:103E7000840F951FA61FB71F96CFCF92DF92EF92A8
:103E8000FF920F931F93CF93DF93EC0180914A0F22
:103E9000811116C080EA90E002C0019789F0FC0110
:103EA000EE0FFF1FE454F74E2081318112161306E6
:103EB000A4F72081318120323D477CF780934A0F5F
:103EC000BE01D7FDA8C08091BC189091BD1886177F
:103ED00097070CF081C080914A0FE82EF12CF70172
:103EE000EE0FFF1FE454F74E8081918186179707EC
:103EF0000CF487C0F701EE7FFF27E454F74E808172
:103F00009181D70140E050E006C0A8014F5F5F4FAC
:103F1000A417B507C4F08D01040F151F159507955B
:103F2000F801EE0FFF1FE454F74E20813181621734
:103F3000730709F475C0261737073CF3D8011197AA
:103F4000A417B50744F7261737070CF073C00E15F2
:103F50001F050CF041C0F801EE0FFF1FE254F74EB1
:103F6000408151812417350709F45AC06B01C21AE8
:103F7000D30A0D2C000CEE08FF08C6017727662730
:103F8000FA01E21BF30B9F01032E000C440B550BAF
:103F90000E94ABC3DA01C9019C5FAF4FBF4FAC01B8
:103FA000BD019BE075956795579547959A95D1F713
:103FB000000F111F02951295107F1027007F102708
:103FC000C801110FAA0BBB0B8C019D01040F151F1B
:103FD000261F371FC80102C080E090E02091BC1866
:103FE0003091BD18C217D3071CF4919581959109A2
:103FF000DF91CF911F910F91FF90EF90DF90CF90C5
:104000000895C701880F991F82959295907F9827F0
:10401000807F9827E3CF662777276C1B7D0B53CFD4
:10402000C801880F991F82959295907F9827807F6D
:104030009827D4CF621773077CF60115110561F23A
:104040007801F1E0EF1AF108F701EE0FFF1FE454D9
:10405000F74E408151812417350711F3641B750B0E
:10406000CB01770FAA0BBB0B77276627241B350BD9
:10407000032E000C440B550B0E94ABC3DA01C9019F
:104080009C5FAF4FBF4FAC01BD01EBE075956795ED
:1040900057954795EA95D1F7C701880F991F8295E3
:1040A0009295907F9827807F9827092E000CAA0B65
:1040B000BB0B840F951FA61FB71F90CF85E0809381
:1040C000FA2C80E090E0089595E09093FA2C8823F4
:1040D00069F0DB01E3E2FDE28150282F30E02C5D46
:1040E000324D9D919193E217F307D9F72091232D3B
:1040F0003091242DA9E8B8E80E94D0C39695879501
:10410000929582958F7089279F7089278093B81A1E
:1041100080E090E0089595E09093FA2C882369F070
:10412000DB01EFE2FDE28150282F30E0205D324DCF
:104130009D919193E217F307D9F78091E60F8111D2
:1041400020C081E08093E60F8091372D9091382D2B
:1041500040912F2D5091302D2091332D3091342DC1
:1041600042175307E8F082179307A8F082179307C6
:1041700058F0821B930B853691051CF086E08093E6
:104180002A1B80E090E00895C901821B930B8536BD
:104190009105A4F7F6CF9C018217930750F7F4CF4F
:1041A0009A018217930710F7F6CF95E09093FA2CB7
:1041B000833019F080E090E00895FB0182818F3F09
:1041C00099F08091D51A9091D61A873E934090F736
:1041D0008091D51A9091D61A01969093D61A809311
:1041E000D51A80E090E0089580819181019649F789
:1041F0008091191A8B7F8093191ADCCF0F931F932C
:104200008091191A80FD0AC08091191A81FD72C02F
:104210008091181A87FF70C0A8E501C0A1E46091E1
:104220001A1A4091A71A5091A81AF091C41AE09155
:10423000C61A7091C51A2091CB1A3091CC1A809170
:10424000C91A9091CA1A1F92AF93A62F062E000C7E
:10425000BB0BBF936F935F934F931F92FF931F927C
:10426000EF931F927F933F932F939F938F938DECA8
:1042700094E09F938F938FE29BE19F938F930E9493
:1042800084C889E00E947B116FEF70E080E090E0CD
:104290000E94121120E040E060E070E080E090E0D9
:1042A0000E94A41120E040E063E170E08FED91E016
:1042B0000E94A41160E07FEF8FEF90E00E94121146
:1042C00084EB0E943F110FE21BE120E030E046E169
:1042D00050E060E070E080E090E00E9426138DB72F
:1042E0009EB744960FB6F8949EBF0FBE8DBF1F9128
:1042F0000F910895A3E593CFA3E491CFCF92DF92DE
:10430000EF92FF92CF93C82F60917C1A70917D1A23
:10431000072E000C880B990B0E94F3C420E030E0BC
:1043200040E05DE30E94A7C56B017C016C2F70E04B
:1043300080E090E00E94F3C49B01AC01C701B6018C
:104340000E9458C46B017C0120E030E0A9010E946A
:1043500054C41816D4F4C701B6010E942EC6609347
:10436000AE017093AF018093B0019093B1018AE9DF
:1043700091E00E94A0189093221A8093211ACF9165
:10438000FF90EF90DF90CF9008951092AE011092C1
:10439000AF011092B0011092B101E9CFCF92DF923C
:1043A000EF92FF920F931F93CF93C82F01E11AE171
:1043B000F80165AD76AD072E000C880B990B0E94B5
:1043C000F3C420E030E040E85BE30E94A7C56B0146
:1043D0007C016C2F70E080E090E00E94F3C49B01B0
:1043E000AC01C701B6010E9458C46093F2017093FA
:1043F000F3018093F4019093F5018EED91E00E941A
:10440000A018F801918B808BCF911F910F91FF9095
:10441000EF90DF90CF9008954F925F926F927F92CE
:104420008F929F92AF92BF92CF92DF92EF92FF92C4
:10443000CF93DF93EC01288D398D4A8D5B8D6C898C
:104440007D898E899F890E94EFC36B017C0148A8FA
:1044500059A86AA87BA82C813D814E815F810E946A
:10446000A7C5A30192010E94A7C52C853D854E8555
:104470005F850E94F0C34B015C0120E030E040E822
:104480005FE30E94A3C518160CF0AAC080E090E07C
:10449000A0E8BFE38C879D87AE87BF874C015D0195
:1044A0008CA9288939894A895B89882309F46FC0D6
:1044B000C701B6010E94EFC3288539854A855B850F
:1044C0000E94A7C5A30192010E9458C42B013C0180
:1044D000288139814A815B81C701B6010E94A7C545
:1044E000A50194010E94F0C39B01AC01C301B2017C
:1044F0000E94F0C32C8D3D8D4E8D5F8D0E94F0C3C8
:104500004B015C016C8F7D8F8E8F9F8FC88AD98AFB
:10451000EA8AFB8A28A539A54AA55BA568A179A1E5
:104520008AA19BA10E94A7C5A50194010E94F0C386
:104530006B017C0120E030E040E85FE30E94A3C50E
:1045400018160CF052C080E090E0A0E8BFE38C8F1A
:104550009D8FAE8FBF8F6C017D012CA53DA54EA513
:104560005FA5C701B6010E94A7C50E94C5C4CB01C3
:10457000DF91CF91FF90EF90DF90CF90BF90AF9001
:104580009F908F907F906F905F904F900895C7019C
:10459000B6010E94EFC3288539854A855B850E9454
:1045A000A7C5A30192010E9458C42B013C01288198
:1045B00039814A815B81C701B6010E94A7C5A50167
:1045C00094010E94F0C39B01AC01C301B2010E949F
:1045D000F0C34B015C016C8F7D8F8E8F9F8F96CFC8
:1045E0008C869D86AE86BF865BCF20E030E0A90139
:1045F000C701B6010E9454C487FF08C01C8E1D8EDF
:104600001E8E1F8EC12CD12C7601A7CFCC8EDD8EB5
:10461000EE8EFF8EA2CF8F929F92AF92BF92CF92DB
:10462000DF92EF92FF920F931F93CF93DF9300D00F
:104630001F92CDB7DEB7F89420913C2D30913D2DDF
:104640008091E42C9091E52C2817390708F044C795
:104650004091E42C5091E52C80E6820F841B9091D0
:10466000E50F890F8093E40F8A300CF444C7309330
:10467000E52C2093E42C78942091E40F8091E50FB1
:10468000922F981B9093C11A8091C11A811145C72E
:104690001092AA1A1092A91A2A502093E50FF894A2
:1046A0008091311A8093002D1092311A789484E011
:1046B0008B83E12C01E09E012D5F3F4F40E060E0E5
:1046C00070E080E78BD8EE24E39409E02BED3FE027
:1046D00040E060E070E085E217D985E08B83B2E0CE
:1046E000EB2E01E09E012D5F3F4F40E060E070E067
:1046F00080E774D813E0E12E09E022ED3FE040E0CE
:1047000060E070E085E200D98AE0898384EB8A83E7
:1047100004E0E02E02E09E012F5F3F4F41E061E0A8
:1047200070E088E45BD885E0E82E20ED3FE041E0D2
:1047300060E070E088E4E8D801C011D88CD9882303
:10474000E1F38091912C811105C08091922C8823F6
:1047500009F43BC08091CF0F8F5F8093CF0F84E02F
:104760008B83E12C01E09E012D5F3F4F40E060E034
:1047700070E080E733D8F4E0EF2E00E020E030E096
:1047800042E063E076E385E229D885E08B83E12C83
:1047900001E09E012D5F3F4F40E060E070E080E768
:1047A0001DD8A4E0EA2E00E020E030E042E063E023
:1047B00076E385E213D88091CF0F8B3040F08AE00A
:1047C0008093CF0F079984C7179A1092CF0F6091EB
:1047D000DB0F862F660F990BAA0BBB0BBA2FA92FE5
:1047E000982F88272091DC0F822B6627782F892F1E
:1047F0009A2F2091E10F3091E20F322723273227A1
:1048000040E050E00E94ABC3211580E838078FEFED
:104810004807580724F420E030E84FEF5FEFDA0153
:10482000C901811520E89207A105B10524F08FEF99
:104830009FE7A0E0B0E09093431A8093421A609102
:10484000DE0F862F660F990BAA0BBB0BBA2FA92F71
:10485000982F88272091DF0F822B6627782F892FAA
:104860009A2F28EC30E040E050E00E94ABC32115C5
:1048700080E838078FEF4807580724F420E030E835
:104880004FEF5FEFDA01C901811520E89207A1051A
:10489000B10524F08FEF9FE7A0E0B0E09093A41A59
:1048A0008093A31A6091D20F862F660F990BAA0BE3
:1048B000BB0BBA2FA92F982F88272091D30F820FD7
:1048C000911DA11DB11D880F991FAA1FBB1F880F25
:1048D000991FAA1FBB1F880F991FAA1FBB1F880FF4
:1048E000991FAA1FBB1FBC01CD01660F771F881F30
:1048F000991F2091D80F3091D90F322723273227C3
:1049000040E050E00E94ABC3211580E838078FEFEC
:104910004807580724F420E030E84FEF5FEFDA0152
:10492000C901811520E89207A105B10524F08FEF98
:104930009FE7A0E0B0E090933F1A80933E1AC090AA
:10494000401AD090411A40913E1A50913F1A0D2CB6
:10495000000CEE08FF08D701C601880F991FAA1F97
:10496000BB1F880F991FAA1FBB1F880F991FAA1F63
:10497000BB1F8C199D09AE09BF09052E000C660BE3
:10498000770B840F951FA61FB71F0496A11DB11D9D
:10499000E3E0B595A79597958795EA95D1F790931C
:1049A000411A8093401A6091D50F862F660F990B9C
:1049B000AA0BBB0BBA2FA92F982F88272091D60FAF
:1049C000822B6627782F892F9A2F28EC30E040E041
:1049D00050E00E94ABC3211580E838078FEF4807ED
:1049E000580724F420E030E84FEF5FEFDA01C90107
:1049F000811520E89207A105B10524F08FEF9FE70C
:104A0000A0E0B0E09093A61A8093A51A8091D00FF1
:104A10009091D10F98278927982790933D1A8093DA
:104A20003C1A80913C1A90913D1A880F991F9093DF
:104A30003D1A80933C1A80913E1A90913F1A9195AD
:104A40008195910990933F1A80933E1A6091C11409
:104A500080913E1A90913F1A2091001A3091011ACC
:104A600070E0821B930B0E946C0E9093531A8093FC
:104A7000521AC090681AD090691AE0906A1AF090A1
:104A80006B1AC114D104E104F10441F0C090CB0FC2
:104A9000D090CC0FE090CD0FF090CE0FA091521A95
:104AA000B091531A2091002D30E00E94DFC36C0DAD
:104AB0007D1D8E1D9F1D6093CB0F7093CC0F809337
:104AC000CD0F9093CE0F2CE330E040E050E00E94F9
:104AD000ABC32093681A3093691A40936A1A5093B3
:104AE0006B1A2091C70F3091C80F4091C90F509198
:104AF000CA0FAFEFB3E00E94E5C36B017C01609386
:104B0000C70F7093C80F8093C90F9093CA0F20915D
:104B1000C30F3091C40F4091C50F5091C60F0E9432
:104B2000E5C3AB01BC014093C30F5093C40F609326
:104B3000C50F7093C60F8091521A9091531A181690
:104B400019060CF02AC58091521A9091531A092E19
:104B5000000CAA0BBB0BBA2FA92F982F88278C0DFE
:104B60009D1DAE1DBF1D9E5FAF4FBF4F0AE0B595A7
:104B7000A795979587950A95D1F78093C70F90933E
:104B8000C80FA093C90FB093CA0F525061097109A1
:104B90002AE075956795579547952A95D1F74093E3
:104BA000C30F5093C40F6093C50F7093C60F805806
:104BB0009F4FAF4FBF4F892F9A2FAB2FBB27A7FD1A
:104BC000BA959093591A8093581A4058510961091F
:104BD0007109452F562F672F772767FD7A955093D8
:104BE0005B1A40935A1A2091581A3091591A8091A1
:104BF0005A1A90915B1A820F931F90935D1A8093BB
:104C00005C1A2091221B3091231BA3E3BEE40E9477
:104C1000D0C3DC01CB0112969C01AD01F2E15595A8
:104C2000479537952795FA95D1F7A3E9B0E00E940B
:104C3000E5C32FE230E040E050E00E94ABC3309388
:104C4000391A2093381A2091241B3091251BA3E395
:104C5000BEE40E94D0C3DC01CB0112969C01AD01E1
:104C6000A2E15595479537952795AA95D1F7A2E3E7
:104C7000B0E00E94E5C32BE030E040E050E00E944D
:104C8000ABC330933B1A20933A1A20911A1B3091F0
:104C90001B1BA3E3BEE40E94D0C3DC01CB0112E1E5
:104CA000B595A795979587951A95D1F79093AC1AD6
:104CB0008093AB1A20911E1B30911F1BA3E3BEE40F
:104CC0000E94D0C38B019C012E5F3F4F42E135957E
:104CD0002795179507954A95D1F71093371A0093A2
:104CE000361ADC01CB01985FAF4FBF4FAC01BD015D
:104CF000ECE07595679557954795EA95D1F78091C2
:104D0000061A9091071A9A01AB01281B390B410929
:104D10005109AAE9BBE00E94E5C3DC01CB01129670
:104D2000F2E1B595A79597958795FA95D1F7909368
:104D30007D1A80937C1A20911C1B30911D1BA3E3CC
:104D4000BEE40E94D0C38B019C012E5F3F4FA2E1C5
:104D50003595279517950795AA95D1F71093331A8E
:104D60000093321ADC01CB01985FAF4FBF4FAC010B
:104D7000BD01BCE07595679557954795BA95D1F7F4
:104D80008091041A9091051A9A01AB01281B390BE6
:104D900041095109AAE9BBE00E94E5C3DC01CB014E
:104DA000905CAF4FBF4F1FE0B595A795979587953E
:104DB0001A95D1F790934F1A80934E1A2091201B89
:104DC0003091211BA3E3BEE40E94D0C38B019C0160
:104DD0002E5F3F4F42E135952795179507954A95E8
:104DE000D1F71093351A0093341ADC01CB01985F88
:104DF000AF4FBF4FAC01BD01ECE07595679557957E
:104E00004795EA95D1F78091081A9091091A9A016D
:104E1000AB01281B390B41095109A0E8BEE00E94F3
:104E2000E5C3DC01CB01905CAF4FBF4FFFE0B59510
:104E3000A79597958795FA95D1F79093491A8093FE
:104E4000481A8091481A9091491A17D822EF35E4F0
:104E5000DC010E94DFC37093651A6093641A80912D
:104E6000641A9091651A2091B31A3091B41A409146
:104E7000B51A5091B61A092E000CAA0BBB0BCC2404
:104E8000D82EE92EFA2EAFEFB0E00E94E5C3DC0188
:104E9000CB018C0D9D1DAE1DBF1D80589F4FAF4F88
:104EA000BF4F892F9A2FAB2FBB27A7FDBA958093B1
:104EB000B31A9093B41AA093B51AB093B61A80910E
:104EC000421A9091431A9195819591099093431AB2
:104ED0008093421A8091421A9091431A2091FE19B0
:104EE0003091FF19821B930B0E94441E22EF35E480
:104EF000DC010E94DFC3DC01CB012EE0B595A79554
:104F0000979587952A95D1F790935F1A80935E1AAB
:104F100080915E1A90915F1A2091AF1A3091B01A69
:104F20004091B11A5091B21A092E000CAA0BBB0B7A
:104F3000CC24D82EE92EFA2EAFEFB0E00E94E5C3C4
:104F4000DC01CB018C0D9D1DAE1DBF1D80589F4FF8
:104F5000AF4FBF4F892F9A2FAB2FBB27A7FDBA9515
:104F60008093AF1A9093B01AA093B11AB093B21A6B
:104F700040915E1A50915F1AC090CF1AD090D01A0B
:104F80000D2C000CEE08FF08D701C601880F991FF1
:104F9000AA1FBB1FC80ED91EEA1EFB1ED701C601E1
:104FA000880F991FAA1FBB1F880F991FAA1FBB1F1D
:104FB0008C0D9D1DAE1DBF1D052E000C660B770BC5
:104FC000840F951FA61FB71F0896A11DB11D14E0E1
:104FD000B595A795979587951A95D1F79093D01A7F
:104FE0008093CF1AA091521AB091531A2091002D9C
:104FF00030E00E94DFC39B01AC01A2E2B2E00E945C
:10500000E5C30BE095958795779567950A95D1F758
:1050100020917C1A30917D1A40917E1A50917F1A0E
:10502000241B350B032E000C440B550B0E94ABC305
:10503000213486E038074105510524F020E436E0AC
:1050400040E050E057FD1DC08091E41A9091E51AB0
:10505000BC01660F771F860F971F092E000CAA0B45
:10506000BB0B820F931FA41FB51FB595A7959795EE
:105070008795B595A795979587959093E51A809311
:10508000E41A8091B31A9091B41AA091B51AB09114
:10509000B61A181619061A061B060CF07AC2609189
:1050A000B31A7091B41A8091B51A9091B61A009102
:1050B000AF1A1091B01A2091B11A3091B21A00585B
:1050C0001F4F2F4F3F4F552737FD5A95432F322FF4
:1050D000212F0E94ABC3AFE4B0E00E94E5C3DC0126
:1050E000CB019B5EAF4FBF4F892F9A2FAB2FBB27B2
:1050F000A7FDBA958093B71AA0913C1AB0913D1ABA
:1051000020910A1A30910B1A0E94DFC3DC01CB01F7
:105110001296F2E1B595A79597958795FA95D1F7EF
:105120008093741A8091741A4091761A5091771A6C
:105130006091781A7091791A082E000C990BAA0BBD
:10514000BB0B840F951FA61FB71F8093761A9093F1
:10515000771AA093781AB093791A80917A1A90915D
:105160007B1A019690937B1A80937A1A80917A1A0F
:1051700090917B1A81379741A8F08091741A082E7C
:10518000000C990BAA0BBB0B8093761A9093771A9D
:10519000A093781AB093791A81E090E090937B1AEB
:1051A00080937A1A8091541A9091551A9093571AB5
:1051B0008093561A8091801A9091811A9093831A45
:1051C0008093821A80917C1A90917D1A90937F1A15
:1051D00080937E1A4091541A5091551A8091521A18
:1051E0009091531A052E000C660B770B8A019B01D8
:1051F000000F111F221F331F000F111F221F331F0B
:10520000400F511F621F731F092E000CAA0BBB0B0E
:10521000840F951FA61FB71FBC01CD016D5F7F4F87
:105220008F4F9F4FF6E0CF2ED12CE12CF12CA70110
:1052300096010E94ABC33093551A2093541A4091A3
:10524000801A5091811A80917C1A90917D1A052EB6
:10525000000C660B770B8A019B01000F111F221FA8
:10526000331F000F111F221F331F400F511F621FDA
:10527000731F092E000CAA0BBB0B840F951FA61FD2
:10528000B71FBC01CD016D5F7F4F8F4F9F4FA701AF
:1052900096010E94ABC33093811A2093801A4091EB
:1052A000501A5091511A80914E1A90914F1A052E12
:1052B000000C660B770B8A019B01000F111F221F48
:1052C000331F000F111F221F331F400F511F621F7A
:1052D000731F092E000CAA0BBB0B840F951FA61F72
:1052E000B71FBC01CD016D5F7F4F8F4F9F4FA7014F
:1052F00096010E94ABC33093511A2093501A4091EB
:10530000601A5091611A80915E1A90915F1A052E71
:10531000000C660B770B8A019B01000F111F221FE7
:10532000331F000F111F221F331F400F511F621F19
:10533000731F092E000CAA0BBB0B840F951FA61F11
:10534000B71FBC01CD016D5F7F4F8F4F9F4FA701EE
:1053500096010E94ABC33093611A2093601A80912A
:105360001C01181614F49091B414815080931C0100
:105370008111F2C08091B414883009F44AC1A0911F
:10538000541AB091551A8D010B2E000C220B330BC1
:105390008091B414883009F469C1E090801AF090CB
:1053A000811AA7010F2C000C660B770B4093BF0FDF
:1053B0005093C00F6093C10F7093C20F80911A1A5F
:1053C000823009F42BC12CE830E00E94DFC3209129
:1053D000A3033091A403032E000C440B550B0E9431
:1053E000ABC3DA01C90112161306140615060CF038
:1053F00062C14096A11DB11DAC01BD0135E075959E
:105400006795579547953A95D1F70091452D10919D
:10541000462D14161506160617060CF038C1D801CD
:10542000A458BC4E4D385105610571050CF096C06D
:105430008CE8841B8C938FEFF801EC5DFE4E80832B
:105440009091181A97FFE0C09C91F801E05BFD4E27
:1054500090838C9326E430E0D7010E94DFC3209133
:10546000A1033091A203032E000C440B550B0E94A4
:10547000ABC3DA01C90112161306140615060CF0A7
:105480006FC04096A11DB11DAC01BD0195E07595A1
:105490006795579547959A95D1F74734510561051A
:1054A00071050CF469C0F801E850F04F1082C80192
:1054B00001966CE271E00E9476C39093462D809332
:1054C000452D8091181A84608093181A8091F41ADF
:1054D00080931C0181E011C08091E42C9091E52C17
:1054E000422F481B842F9091E50F890F8093E40F82
:1054F0008A300CF0BCC8789480E00F900F900F9029
:10550000DF91CF911F910F91FF90EF90DF90CF909F
:10551000BF90AF909F908F9008958091A91A90911D
:10552000AA1A8238910508F0B3C8E091A91AF0913F
:10553000AA1A6091C11A44EF51E0E49FC001E59FAF
:10554000900DF49F900D112470E00E9462C370933F
:10555000A81A6093A71A9CC881E0CFCF1C926BCF8A
:105560004097A109B109AC01BD0185E0759567952A
:10557000579547958A95D1F71416150616061706FE
:105580000CF0ACC0F801E850F04F86E4841B808337
:105590008ECF85E18093B71AAFCDD701C6019E5F4C
:1055A000AF4FBF4F2AE0B595A795979587952A9558
:1055B000D1F78093C70F9093C80FA093C90FB093F2
:1055C000CA0F0091521A1091531A012E000C220B8F
:1055D000330B322F212F102F0027400F511F621F36
:1055E000731F525061097109FAE0759567955795D7
:1055F0004795FA95D1F74093C30F5093C40F60932A
:10560000C50F7093C60FD3CAF801E05BFD4E8083CF
:1056100021CFA091601AB091611AB5CE8090701A16
:105620009090711A092C000CAA08BB0880169106EC
:10563000A206B30624F4B093711AA093701A0091D5
:10564000EA0F1091EB0F012E000C220B330B041705
:105650001507260737070CF0B6CE8091801A909177
:10566000811A9093EB0F8093EA0FADCE4091801A90
:105670005091811A8091501A9091511A8417950770
:105680000CF48BCEE090501AF090511A8ACEF801AB
:10569000E05BFD4E8FEF8083F801E458FC4E808381
:1056A000F801EC5DFE4E44378FEF58076807780726
:1056B0008CF41082CFCE4097A109B109AC01BD0195
:1056C00025E075956795579547952A95D1F79DCE15
:1056D00017987DC82CE8240F2083BCCE8FEFF801EB
:1056E000E850F04F8083E3CEF8948091A91480FDB8
:1056F00064C085E080931B01789480911B0188230E
:1057000009F49DC045E064E574E280E190E00E9408
:10571000F70F2091A5033091A6034091A703509164
:10572000A8036CE175E280E190E00E94B00F209147
:10573000A9033091AA034091AB035091AC0360E2FE
:1057400075E280E190E00E94B00F2091AD033091AE
:10575000AE034091AF035091B00364E275E280E183
:1057600090E00E94B00F2091B1033091B2034091BC
:10577000B3035091B40368E275E280E190E00E94C7
:10578000B00F2091B5033091B6034091B70350910B
:10579000B8036CE275E280E190E00E94B00F2091C6
:1057A000B9033091BA034091BB035091BC0360E34D
:1057B00075E280E190E00C94B00F80913C2D9091C7
:1057C0003D2D2091EA2C3091EB2C8217930708F0A5
:1057D00091C02091EA2C3091EB2C40E65AEE60E02B
:1057E00070E0421B530B61097109480F591F611D7D
:1057F000711D43335105610571050CF47DCF909304
:10580000EB2C8093EA2C789480911B01853009F46D
:1058100081C081110CC0329B0AC080911A01815055
:1058200080931A01811168CF85E080931B018AE083
:1058300080931A01789480911B01811163CF40E01D
:1058400064E574E280E190E00E94F70F2091BD03CF
:105850003091BE034091BF035091C0036CE175E2EB
:1058600080E190E00E94B00F2091C1033091C2030B
:105870004091C3035091C40360E275E280E190E07F
:105880000E94B00F2091C5033091C6034091C70319
:105890005091C80364E275E280E190E00E94B00F8D
:1058A0002091C9033091CA034091CB035091CC039E
:1058B00068E275E280E190E00E94B00F2091CD0394
:1058C0003091CE034091CF035091D0036CE275E24A
:1058D00080E190E00E94B00F2091D1033091D2037B
:1058E0004091D3035091D40360E375E280E190E0EE
:1058F0000C94B00F2091EA2C3091EB2CAC01421BA0
:10590000530B60E070E043335105610571050CF401
:10591000F3CE75CF32998BCF80911A01815080934D
:105920001A018111E9CE10921B0181CF0F931F93B1
:10593000CF93DF9300D000D0CDB7DEB78091920433
:10594000909193040E94BA1D882371F086E394E03D
:105950000E9473178AE00F900F900F900F90DF91C5
:10596000CF911F910F91089586E394E00E948717CD
:10597000882311F08BE0EFCFE091BE0F4E2F50E067
:105980004830510518F01092BE0FE5CFFA01EA5BDE
:10599000FF4F0C94C7C360E084E690E00E9480173C
:1059A0008091191A82FF78C005ED1AE122E047E0E4
:1059B0006AEA86E394E00E9465178091BE0F8F5FCC
:1059C0008093BE0FC8CFBE016F5F7F4FCE0104969C
:1059D0000E94C4178C818A3A19F48981863019F1A2
:1059E0000E94D1178111E9CF8091BE0FB4CF60E042
:1059F00084E690E00E94801700E010E020E045E09F
:105A00006AEA86E394E00E946517D7CFBE016F5F14
:105A10007F4FCE0104960E94C4178C818A3A01F709
:105A200089818130E9F680914B358F5F80934B35CA
:105A3000C4CF60E084E690E00E94801700E010E0B0
:105A400020E041E0DDCFBE016F5F7F4FCE010496C5
:105A50000E94C4178C818A3A19F68981873009F02F
:105A6000BFCFABCF60E084E690E00E94801700E0FB
:105A700010E020E046E0C4CFBE016F5F7F4FCE0153
:105A800004960E94C4178C818A3A09F0A9CF8981B3
:105A9000853009F0A5CFC7CF8091D11A9091D21A45
:105AA00099838091D11A9091D21A8A838091D31AC6
:105AB0008B838E010F5F1F4F23E047E06AEA86E386
:105AC00094E00E94651779CFCF92DF92EF92FF9218
:105AD000CF93DF93EC016A017B01A895F999FECF82
